{
  "contractName": "LiveStream",
  "abi": [
    {
      "constant": true,
      "inputs": [],
      "name": "getBudget",
      "outputs": [
        {
          "name": "",
          "type": "uint256"
        }
      ],
      "payable": false,
      "stateMutability": "view",
      "type": "function"
    },
    {
      "constant": false,
      "inputs": [
        {
          "name": "userId",
          "type": "bytes32"
        }
      ],
      "name": "subscribe",
      "outputs": [],
      "payable": false,
      "stateMutability": "nonpayable",
      "type": "function"
    },
    {
      "constant": true,
      "inputs": [
        {
          "name": "userId",
          "type": "bytes32"
        }
      ],
      "name": "getMySubscription",
      "outputs": [
        {
          "name": "",
          "type": "address"
        }
      ],
      "payable": false,
      "stateMutability": "view",
      "type": "function"
    }
  ],
  "bytecode": "0x6060604052341561000f57600080fd5b6101ea8061001e6000396000f300606060405260043610610057576000357c0100000000000000000000000000000000000000000000000000000000900463ffffffff168063127714c71461005c5780632faf44f614610085578063ebae9e6f146100ac575b600080fd5b341561006757600080fd5b61006f610113565b6040518082815260200191505060405180910390f35b341561009057600080fd5b6100aa60048080356000191690602001909190505061011c565b005b34156100b757600080fd5b6100d1600480803560001916906020019091905050610179565b604051808273ffffffffffffffffffffffffffffffffffffffff1673ffffffffffffffffffffffffffffffffffffffff16815260200191505060405180910390f35b60008054905090565b3360016000836000191660001916815260200190815260200160002060006101000a81548173ffffffffffffffffffffffffffffffffffffffff021916908373ffffffffffffffffffffffffffffffffffffffff16021790555050565b600060016000836000191660001916815260200190815260200160002060009054906101000a900473ffffffffffffffffffffffffffffffffffffffff1690509190505600a165627a7a7230582034d976a760c8de3aee368be7d8215ef8f4318ed52b44084a3f8531e874cb78990029",
  "source": "pragma solidity ^0.4.18;\r\n\r\ncontract LiveStream {\r\n    uint budget;\r\n    mapping(bytes32 => address) mySubscription;\r\n\r\n    function getBudget() public view returns (uint) {\r\n        return budget;\r\n    }\r\n\r\n    function getMySubscription(bytes32 userId) public view returns (address) {\r\n        return mySubscription[userId];\r\n    }\r\n\r\n    function subscribe(bytes32 userId) public {\r\n        mySubscription[userId] = msg.sender;\r\n    }\r\n}",
  "sourcePath": "S:\\Blockchain\\ETH\\live-eth\\contracts\\LiveStream.sol",
  "compiler": {
    "name": "solc",
    "version": "0.4.18+commit.9cf6e910.Emscripten.clang"
  },
  "schemaVersion": "1.0.1",
  "updatedAt": "2017-12-27T09:16:41.539Z"
}