{
  "contractName": "LiveStream",
  "abi": [
    {
      "constant": false,
      "inputs": [
        {
          "name": "userId",
          "type": "bytes32"
        }
      ],
      "name": "subscribe",
      "outputs": [
        {
          "name": "",
          "type": "bytes32"
        }
      ],
      "payable": false,
      "stateMutability": "nonpayable",
      "type": "function"
    },
    {
      "constant": true,
      "inputs": [
        {
          "name": "userId",
          "type": "bytes32"
        }
      ],
      "name": "getMySubscription",
      "outputs": [
        {
          "name": "",
          "type": "address"
        }
      ],
      "payable": false,
      "stateMutability": "view",
      "type": "function"
    },
    {
      "constant": true,
      "inputs": [
        {
          "name": "userId",
          "type": "bytes32",
          "indexed": false
        },
        {
          "indexed": false,
          "name": "returnValue",
          "type": "bytes32"
        }
      ],
      "name": "SubscribeEvent",
      "outputs": [
        {
          "name": "",
          "type": "address"
        }
      ],
      "payable": false,
      "stateMutability": "view",
      "type": "event",
      "anonymous": false
    }
  ],
  "bytecode": "0x6060604052341561000f57600080fd5b6101ce8061001e6000396000f30060606040526004361061004c576000357c0100000000000000000000000000000000000000000000000000000000900463ffffffff1680632faf44f614610051578063ebae9e6f14610094575b600080fd5b341561005c57600080fd5b6100766004808035600019169060200190919050506100fb565b60405180826000191660001916815260200191505060405180910390f35b341561009f57600080fd5b6100b960048080356000191690602001909190505061015e565b604051808273ffffffffffffffffffffffffffffffffffffffff1673ffffffffffffffffffffffffffffffffffffffff16815260200191505060405180910390f35b600033600080846000191660001916815260200190815260200160002060006101000a81548173ffffffffffffffffffffffffffffffffffffffff021916908373ffffffffffffffffffffffffffffffffffffffff160217905550819050919050565b6000806000836000191660001916815260200190815260200160002060009054906101000a900473ffffffffffffffffffffffffffffffffffffffff1690509190505600a165627a7a7230582079813aef7b65e171fbd6dfec0399f19d7a7578bf512627587009ed8ff6b131a30029",
  "source": "pragma solidity ^0.4.18;\r\n\r\ncontract LiveStream {\r\n    mapping(bytes32 => address) mySubscription;\r\n\r\n    function getMySubscription(bytes32 userId) public view returns (address) {\r\n        return mySubscription[userId];\r\n    }\r\n\r\n    function subscribe(bytes32 userId) public returns (bytes32) {\r\n        mySubscription[userId] = msg.sender;\r\n        return userId;\r\n    }\r\n}",
  "sourcePath": "S:\\Blockchain\\ETH\\live-eth\\contracts\\LiveStream.sol",
  "compiler": {
    "name": "solc",
    "version": "0.4.18+commit.9cf6e910.Emscripten.clang"
  },
  "schemaVersion": "1.0.1",
  "updatedAt": "2018-01-05T15:50:23.729Z"
}